{
  "_format": "hh-sol-artifact-1",
  "contractName": "Character",
  "sourceName": "contracts/Character.sol",
  "abi": [
    {
      "inputs": [
        {
          "internalType": "string",
          "name": "_theBaseURI",
          "type": "string"
        },
        {
          "internalType": "string",
          "name": "_notRevealedURI",
          "type": "string"
        },
        {
          "internalType": "bytes32",
          "name": "_merkleRoot",
          "type": "bytes32"
        }
      ],
      "stateMutability": "nonpayable",
      "type": "constructor"
    },
    {
      "anonymous": false,
      "inputs": [
        {
          "indexed": true,
          "internalType": "address",
          "name": "owner",
          "type": "address"
        },
        {
          "indexed": true,
          "internalType": "address",
          "name": "approved",
          "type": "address"
        },
        {
          "indexed": true,
          "internalType": "uint256",
          "name": "tokenId",
          "type": "uint256"
        }
      ],
      "name": "Approval",
      "type": "event"
    },
    {
      "anonymous": false,
      "inputs": [
        {
          "indexed": true,
          "internalType": "address",
          "name": "owner",
          "type": "address"
        },
        {
          "indexed": true,
          "internalType": "address",
          "name": "operator",
          "type": "address"
        },
        {
          "indexed": false,
          "internalType": "bool",
          "name": "approved",
          "type": "bool"
        }
      ],
      "name": "ApprovalForAll",
      "type": "event"
    },
    {
      "anonymous": false,
      "inputs": [
        {
          "indexed": true,
          "internalType": "contract IERC20",
          "name": "token",
          "type": "address"
        },
        {
          "indexed": false,
          "internalType": "address",
          "name": "to",
          "type": "address"
        },
        {
          "indexed": false,
          "internalType": "uint256",
          "name": "amount",
          "type": "uint256"
        }
      ],
      "name": "ERC20PaymentReleased",
      "type": "event"
    },
    {
      "anonymous": false,
      "inputs": [
        {
          "indexed": true,
          "internalType": "address",
          "name": "previousOwner",
          "type": "address"
        },
        {
          "indexed": true,
          "internalType": "address",
          "name": "newOwner",
          "type": "address"
        }
      ],
      "name": "OwnershipTransferred",
      "type": "event"
    },
    {
      "anonymous": false,
      "inputs": [
        {
          "indexed": false,
          "internalType": "address",
          "name": "account",
          "type": "address"
        },
        {
          "indexed": false,
          "internalType": "uint256",
          "name": "shares",
          "type": "uint256"
        }
      ],
      "name": "PayeeAdded",
      "type": "event"
    },
    {
      "anonymous": false,
      "inputs": [
        {
          "indexed": false,
          "internalType": "address",
          "name": "from",
          "type": "address"
        },
        {
          "indexed": false,
          "internalType": "uint256",
          "name": "amount",
          "type": "uint256"
        }
      ],
      "name": "PaymentReceived",
      "type": "event"
    },
    {
      "anonymous": false,
      "inputs": [
        {
          "indexed": false,
          "internalType": "address",
          "name": "to",
          "type": "address"
        },
        {
          "indexed": false,
          "internalType": "uint256",
          "name": "amount",
          "type": "uint256"
        }
      ],
      "name": "PaymentReleased",
      "type": "event"
    },
    {
      "anonymous": false,
      "inputs": [
        {
          "indexed": true,
          "internalType": "address",
          "name": "from",
          "type": "address"
        },
        {
          "indexed": true,
          "internalType": "address",
          "name": "to",
          "type": "address"
        },
        {
          "indexed": true,
          "internalType": "uint256",
          "name": "tokenId",
          "type": "uint256"
        }
      ],
      "name": "Transfer",
      "type": "event"
    },
    {
      "inputs": [],
      "name": "MAX_SUPPLY",
      "outputs": [
        {
          "internalType": "uint256",
          "name": "",
          "type": "uint256"
        }
      ],
      "stateMutability": "view",
      "type": "function"
    },
    {
      "inputs": [
        {
          "internalType": "address",
          "name": "to",
          "type": "address"
        },
        {
          "internalType": "uint256",
          "name": "tokenId",
          "type": "uint256"
        }
      ],
      "name": "approve",
      "outputs": [],
      "stateMutability": "nonpayable",
      "type": "function"
    },
    {
      "inputs": [
        {
          "internalType": "address",
          "name": "owner",
          "type": "address"
        }
      ],
      "name": "balanceOf",
      "outputs": [
        {
          "internalType": "uint256",
          "name": "",
          "type": "uint256"
        }
      ],
      "stateMutability": "view",
      "type": "function"
    },
    {
      "inputs": [],
      "name": "baseExtension",
      "outputs": [
        {
          "internalType": "string",
          "name": "",
          "type": "string"
        }
      ],
      "stateMutability": "view",
      "type": "function"
    },
    {
      "inputs": [],
      "name": "baseURI",
      "outputs": [
        {
          "internalType": "string",
          "name": "",
          "type": "string"
        }
      ],
      "stateMutability": "view",
      "type": "function"
    },
    {
      "inputs": [
        {
          "internalType": "uint256",
          "name": "_maxMintAllowed",
          "type": "uint256"
        }
      ],
      "name": "changeMaxMintAllowed",
      "outputs": [],
      "stateMutability": "nonpayable",
      "type": "function"
    },
    {
      "inputs": [
        {
          "internalType": "bytes32",
          "name": "_newMerkleRoot",
          "type": "bytes32"
        }
      ],
      "name": "changeMerkleRoot",
      "outputs": [],
      "stateMutability": "nonpayable",
      "type": "function"
    },
    {
      "inputs": [
        {
          "internalType": "uint256",
          "name": "_pricePresale",
          "type": "uint256"
        }
      ],
      "name": "changePricePresale",
      "outputs": [],
      "stateMutability": "nonpayable",
      "type": "function"
    },
    {
      "inputs": [
        {
          "internalType": "uint256",
          "name": "_priceSale",
          "type": "uint256"
        }
      ],
      "name": "changePriceSale",
      "outputs": [],
      "stateMutability": "nonpayable",
      "type": "function"
    },
    {
      "inputs": [
        {
          "internalType": "uint256",
          "name": "tokenId",
          "type": "uint256"
        }
      ],
      "name": "getApproved",
      "outputs": [
        {
          "internalType": "address",
          "name": "",
          "type": "address"
        }
      ],
      "stateMutability": "view",
      "type": "function"
    },
    {
      "inputs": [],
      "name": "getNumberNFT",
      "outputs": [
        {
          "internalType": "uint256",
          "name": "",
          "type": "uint256"
        }
      ],
      "stateMutability": "pure",
      "type": "function"
    },
    {
      "inputs": [
        {
          "internalType": "address",
          "name": "_account",
          "type": "address"
        }
      ],
      "name": "gift",
      "outputs": [],
      "stateMutability": "nonpayable",
      "type": "function"
    },
    {
      "inputs": [
        {
          "internalType": "address",
          "name": "owner",
          "type": "address"
        },
        {
          "internalType": "address",
          "name": "operator",
          "type": "address"
        }
      ],
      "name": "isApprovedForAll",
      "outputs": [
        {
          "internalType": "bool",
          "name": "",
          "type": "bool"
        }
      ],
      "stateMutability": "view",
      "type": "function"
    },
    {
      "inputs": [],
      "name": "max_mint_allowed",
      "outputs": [
        {
          "internalType": "uint256",
          "name": "",
          "type": "uint256"
        }
      ],
      "stateMutability": "view",
      "type": "function"
    },
    {
      "inputs": [],
      "name": "merkleRoot",
      "outputs": [
        {
          "internalType": "bytes32",
          "name": "",
          "type": "bytes32"
        }
      ],
      "stateMutability": "view",
      "type": "function"
    },
    {
      "inputs": [],
      "name": "name",
      "outputs": [
        {
          "internalType": "string",
          "name": "",
          "type": "string"
        }
      ],
      "stateMutability": "view",
      "type": "function"
    },
    {
      "inputs": [],
      "name": "notRevealedURI",
      "outputs": [
        {
          "internalType": "string",
          "name": "",
          "type": "string"
        }
      ],
      "stateMutability": "view",
      "type": "function"
    },
    {
      "inputs": [],
      "name": "owner",
      "outputs": [
        {
          "internalType": "address",
          "name": "",
          "type": "address"
        }
      ],
      "stateMutability": "view",
      "type": "function"
    },
    {
      "inputs": [
        {
          "internalType": "uint256",
          "name": "tokenId",
          "type": "uint256"
        }
      ],
      "name": "ownerOf",
      "outputs": [
        {
          "internalType": "address",
          "name": "",
          "type": "address"
        }
      ],
      "stateMutability": "view",
      "type": "function"
    },
    {
      "inputs": [],
      "name": "paused",
      "outputs": [
        {
          "internalType": "bool",
          "name": "",
          "type": "bool"
        }
      ],
      "stateMutability": "view",
      "type": "function"
    },
    {
      "inputs": [
        {
          "internalType": "uint256",
          "name": "index",
          "type": "uint256"
        }
      ],
      "name": "payee",
      "outputs": [
        {
          "internalType": "address",
          "name": "",
          "type": "address"
        }
      ],
      "stateMutability": "view",
      "type": "function"
    },
    {
      "inputs": [
        {
          "internalType": "address",
          "name": "_account",
          "type": "address"
        },
        {
          "internalType": "bytes32[]",
          "name": "_proof",
          "type": "bytes32[]"
        }
      ],
      "name": "presaleMint",
      "outputs": [],
      "stateMutability": "payable",
      "type": "function"
    },
    {
      "inputs": [],
      "name": "pricePresale",
      "outputs": [
        {
          "internalType": "uint256",
          "name": "",
          "type": "uint256"
        }
      ],
      "stateMutability": "view",
      "type": "function"
    },
    {
      "inputs": [],
      "name": "priceSale",
      "outputs": [
        {
          "internalType": "uint256",
          "name": "",
          "type": "uint256"
        }
      ],
      "stateMutability": "view",
      "type": "function"
    },
    {
      "inputs": [
        {
          "internalType": "address payable",
          "name": "account",
          "type": "address"
        }
      ],
      "name": "release",
      "outputs": [],
      "stateMutability": "nonpayable",
      "type": "function"
    },
    {
      "inputs": [
        {
          "internalType": "contract IERC20",
          "name": "token",
          "type": "address"
        },
        {
          "internalType": "address",
          "name": "account",
          "type": "address"
        }
      ],
      "name": "release",
      "outputs": [],
      "stateMutability": "nonpayable",
      "type": "function"
    },
    {
      "inputs": [
        {
          "internalType": "contract IERC20",
          "name": "token",
          "type": "address"
        },
        {
          "internalType": "address",
          "name": "account",
          "type": "address"
        }
      ],
      "name": "released",
      "outputs": [
        {
          "internalType": "uint256",
          "name": "",
          "type": "uint256"
        }
      ],
      "stateMutability": "view",
      "type": "function"
    },
    {
      "inputs": [
        {
          "internalType": "address",
          "name": "account",
          "type": "address"
        }
      ],
      "name": "released",
      "outputs": [
        {
          "internalType": "uint256",
          "name": "",
          "type": "uint256"
        }
      ],
      "stateMutability": "view",
      "type": "function"
    },
    {
      "inputs": [],
      "name": "renounceOwnership",
      "outputs": [],
      "stateMutability": "nonpayable",
      "type": "function"
    },
    {
      "inputs": [],
      "name": "reveal",
      "outputs": [],
      "stateMutability": "nonpayable",
      "type": "function"
    },
    {
      "inputs": [],
      "name": "revealed",
      "outputs": [
        {
          "internalType": "bool",
          "name": "",
          "type": "bool"
        }
      ],
      "stateMutability": "view",
      "type": "function"
    },
    {
      "inputs": [
        {
          "internalType": "address",
          "name": "from",
          "type": "address"
        },
        {
          "internalType": "address",
          "name": "to",
          "type": "address"
        },
        {
          "internalType": "uint256",
          "name": "tokenId",
          "type": "uint256"
        }
      ],
      "name": "safeTransferFrom",
      "outputs": [],
      "stateMutability": "nonpayable",
      "type": "function"
    },
    {
      "inputs": [
        {
          "internalType": "address",
          "name": "from",
          "type": "address"
        },
        {
          "internalType": "address",
          "name": "to",
          "type": "address"
        },
        {
          "internalType": "uint256",
          "name": "tokenId",
          "type": "uint256"
        },
        {
          "internalType": "bytes",
          "name": "_data",
          "type": "bytes"
        }
      ],
      "name": "safeTransferFrom",
      "outputs": [],
      "stateMutability": "nonpayable",
      "type": "function"
    },
    {
      "inputs": [
        {
          "internalType": "uint256",
          "name": "_ammount",
          "type": "uint256"
        }
      ],
      "name": "saleMint",
      "outputs": [],
      "stateMutability": "payable",
      "type": "function"
    },
    {
      "inputs": [],
      "name": "sellingStep",
      "outputs": [
        {
          "internalType": "enum Character.Steps",
          "name": "",
          "type": "uint8"
        }
      ],
      "stateMutability": "view",
      "type": "function"
    },
    {
      "inputs": [
        {
          "internalType": "address",
          "name": "operator",
          "type": "address"
        },
        {
          "internalType": "bool",
          "name": "approved",
          "type": "bool"
        }
      ],
      "name": "setApprovalForAll",
      "outputs": [],
      "stateMutability": "nonpayable",
      "type": "function"
    },
    {
      "inputs": [
        {
          "internalType": "string",
          "name": "_baseExtension",
          "type": "string"
        }
      ],
      "name": "setBaseExtension",
      "outputs": [],
      "stateMutability": "nonpayable",
      "type": "function"
    },
    {
      "inputs": [
        {
          "internalType": "string",
          "name": "_newBaseURI",
          "type": "string"
        }
      ],
      "name": "setBaseUri",
      "outputs": [],
      "stateMutability": "nonpayable",
      "type": "function"
    },
    {
      "inputs": [
        {
          "internalType": "string",
          "name": "_notRevealedURI",
          "type": "string"
        }
      ],
      "name": "setNotRevealURI",
      "outputs": [],
      "stateMutability": "nonpayable",
      "type": "function"
    },
    {
      "inputs": [
        {
          "internalType": "bool",
          "name": "_paused",
          "type": "bool"
        }
      ],
      "name": "setPaused",
      "outputs": [],
      "stateMutability": "nonpayable",
      "type": "function"
    },
    {
      "inputs": [],
      "name": "setUpPresale",
      "outputs": [],
      "stateMutability": "nonpayable",
      "type": "function"
    },
    {
      "inputs": [],
      "name": "setUpSale",
      "outputs": [],
      "stateMutability": "nonpayable",
      "type": "function"
    },
    {
      "inputs": [
        {
          "internalType": "address",
          "name": "account",
          "type": "address"
        }
      ],
      "name": "shares",
      "outputs": [
        {
          "internalType": "uint256",
          "name": "",
          "type": "uint256"
        }
      ],
      "stateMutability": "view",
      "type": "function"
    },
    {
      "inputs": [
        {
          "internalType": "bytes4",
          "name": "interfaceId",
          "type": "bytes4"
        }
      ],
      "name": "supportsInterface",
      "outputs": [
        {
          "internalType": "bool",
          "name": "",
          "type": "bool"
        }
      ],
      "stateMutability": "view",
      "type": "function"
    },
    {
      "inputs": [],
      "name": "symbol",
      "outputs": [
        {
          "internalType": "string",
          "name": "",
          "type": "string"
        }
      ],
      "stateMutability": "view",
      "type": "function"
    },
    {
      "inputs": [
        {
          "internalType": "uint256",
          "name": "index",
          "type": "uint256"
        }
      ],
      "name": "tokenByIndex",
      "outputs": [
        {
          "internalType": "uint256",
          "name": "",
          "type": "uint256"
        }
      ],
      "stateMutability": "view",
      "type": "function"
    },
    {
      "inputs": [
        {
          "internalType": "address",
          "name": "owner",
          "type": "address"
        },
        {
          "internalType": "uint256",
          "name": "index",
          "type": "uint256"
        }
      ],
      "name": "tokenOfOwnerByIndex",
      "outputs": [
        {
          "internalType": "uint256",
          "name": "",
          "type": "uint256"
        }
      ],
      "stateMutability": "view",
      "type": "function"
    },
    {
      "inputs": [
        {
          "internalType": "uint256",
          "name": "_nftId",
          "type": "uint256"
        }
      ],
      "name": "tokenURI",
      "outputs": [
        {
          "internalType": "string",
          "name": "",
          "type": "string"
        }
      ],
      "stateMutability": "view",
      "type": "function"
    },
    {
      "inputs": [
        {
          "internalType": "contract IERC20",
          "name": "token",
          "type": "address"
        }
      ],
      "name": "totalReleased",
      "outputs": [
        {
          "internalType": "uint256",
          "name": "",
          "type": "uint256"
        }
      ],
      "stateMutability": "view",
      "type": "function"
    },
    {
      "inputs": [],
      "name": "totalReleased",
      "outputs": [
        {
          "internalType": "uint256",
          "name": "",
          "type": "uint256"
        }
      ],
      "stateMutability": "view",
      "type": "function"
    },
    {
      "inputs": [],
      "name": "totalShares",
      "outputs": [
        {
          "internalType": "uint256",
          "name": "",
          "type": "uint256"
        }
      ],
      "stateMutability": "view",
      "type": "function"
    },
    {
      "inputs": [],
      "name": "totalSupply",
      "outputs": [
        {
          "internalType": "uint256",
          "name": "",
          "type": "uint256"
        }
      ],
      "stateMutability": "view",
      "type": "function"
    },
    {
      "inputs": [
        {
          "internalType": "address",
          "name": "from",
          "type": "address"
        },
        {
          "internalType": "address",
          "name": "to",
          "type": "address"
        },
        {
          "internalType": "uint256",
          "name": "tokenId",
          "type": "uint256"
        }
      ],
      "name": "transferFrom",
      "outputs": [],
      "stateMutability": "nonpayable",
      "type": "function"
    },
    {
      "inputs": [
        {
          "internalType": "address",
          "name": "newOwner",
          "type": "address"
        }
      ],
      "name": "transferOwnership",
      "outputs": [],
      "stateMutability": "nonpayable",
      "type": "function"
    },
    {
      "stateMutability": "payable",
      "type": "receive"
    }
  ],
  "bytecode": "0x600260155565e35fa931a000601655660110d9316ec00060175560c06040526005608081905264173539b7b760d91b60a09081526200004291601a919062000714565b50601b805461ffff1916905560408051606081018252735b38da6a701c568545dcfcb03fcb875f56beddc4815273ab8483f64d9c6d1ecf9b849ae677dd3315835cb26020820152734b20993bc481177ec7e8f571cecae8a9e22c02db91810191909152620000b590601d906003620007a3565b50604080516060810182526046815260146020820152600a91810191909152620000e490601e906003620007fb565b50348015620000f257600080fd5b50604051620040f0380380620040f083398101604081905262000115916200090c565b601d8054806020026020016040519081016040528092919081815260200182805480156200016d57602002820191906000526020600020905b81546001600160a01b031681526001909101906020018083116200014e575b5050505050601e805480602002602001604051908101604052809291908181526020018280548015620001c057602002820191906000526020600020905b815481526020019060010190808311620001ab575b50505050506040518060400160405280600981526020016821a420a920a1aa22a960b91b8152506040518060400160405280600981526020016813919514de5b589bdb60ba1b81525081600090805190602001906200022192919062000714565b5080516200023790600190602084019062000714565b5050508051825114620002ac5760405162461bcd60e51b815260206004820152603260248201527f5061796d656e7453706c69747465723a2070617965657320616e6420736861726044820152710cae640d8cadccee8d040dad2e6dac2e8c6d60731b60648201526084015b60405180910390fd5b6000825111620002ff5760405162461bcd60e51b815260206004820152601a60248201527f5061796d656e7453706c69747465723a206e6f207061796565730000000000006044820152606401620002a3565b60005b82518110156200036b576200035683828151811062000325576200032562000a0b565b602002602001015183838151811062000342576200034262000a0b565b6020026020010151620003f660201b60201c565b806200036281620009d7565b91505062000302565b5050506200038862000382620005e460201b60201c565b620005e8565b6001601281905550620003a760146200063a60201b62001e0f1760201c565b620003b23362000643565b601b805462ff0000191690558251620003d390601890602086019062000714565b508151620003e990601990602085019062000714565b506013555062000a379050565b6001600160a01b038216620004635760405162461bcd60e51b815260206004820152602c60248201527f5061796d656e7453706c69747465723a206163636f756e74206973207468652060448201526b7a65726f206164647265737360a01b6064820152608401620002a3565b60008111620004b55760405162461bcd60e51b815260206004820152601d60248201527f5061796d656e7453706c69747465723a207368617265732061726520300000006044820152606401620002a3565b6001600160a01b0382166000908152600c602052604090205415620005315760405162461bcd60e51b815260206004820152602b60248201527f5061796d656e7453706c69747465723a206163636f756e7420616c726561647960448201526a206861732073686172657360a81b6064820152608401620002a3565b600e8054600181019091557fbb7b4a454dc3493923482f07822329ed19e8244eff582cc204f8554c3620c3fd0180546001600160a01b0319166001600160a01b0384169081179091556000908152600c60205260409020819055600a546200059b9082906200097f565b600a55604080516001600160a01b0384168152602081018390527f40c340f65e17194d14ddddb073d3c9f888e3cb52b5aae0c6c7706b4fbc905fac910160405180910390a15050565b3390565b601180546001600160a01b038381166001600160a01b0319831681179093556040519116919082907f8be0079c531659141344cd1fd0a4f28419497f9722a3daafe3b4186f6b6457e090600090a35050565b80546001019055565b6011546001600160a01b031633146200069f5760405162461bcd60e51b815260206004820181905260248201527f4f776e61626c653a2063616c6c6572206973206e6f7420746865206f776e65726044820152606401620002a3565b6001600160a01b038116620007065760405162461bcd60e51b815260206004820152602660248201527f4f776e61626c653a206e6577206f776e657220697320746865207a65726f206160448201526564647265737360d01b6064820152608401620002a3565b6200071181620005e8565b50565b82805462000722906200099a565b90600052602060002090601f01602090048101928262000746576000855562000791565b82601f106200076157805160ff191683800117855562000791565b8280016001018555821562000791579182015b828111156200079157825182559160200191906001019062000774565b506200079f9291506200083e565b5090565b82805482825590600052602060002090810192821562000791579160200282015b828111156200079157825182546001600160a01b0319166001600160a01b03909116178255602090920191600190910190620007c4565b82805482825590600052602060002090810192821562000791579160200282015b8281111562000791578251829060ff169055916020019190600101906200081c565b5b808211156200079f57600081556001016200083f565b600082601f8301126200086757600080fd5b81516001600160401b038082111562000884576200088462000a21565b604051601f8301601f19908116603f01168101908282118183101715620008af57620008af62000a21565b81604052838152602092508683858801011115620008cc57600080fd5b600091505b83821015620008f05785820183015181830184015290820190620008d1565b83821115620009025760008385830101525b9695505050505050565b6000806000606084860312156200092257600080fd5b83516001600160401b03808211156200093a57600080fd5b620009488783880162000855565b945060208601519150808211156200095f57600080fd5b506200096e8682870162000855565b925050604084015190509250925092565b60008219821115620009955762000995620009f5565b500190565b600181811c90821680620009af57607f821691505b60208210811415620009d157634e487b7160e01b600052602260045260246000fd5b50919050565b6000600019821415620009ee57620009ee620009f5565b5060010190565b634e487b7160e01b600052601160045260246000fd5b634e487b7160e01b600052603260045260246000fd5b634e487b7160e01b600052604160045260246000fd5b6136a98062000a476000396000f3fe6080604052600436106103395760003560e01c806370a08231116101ab578063a475b5dd116100f7578063ce7c2ac211610095578063e33b7de31161006f578063e33b7de3146109a7578063e985e9c5146109bc578063ebcea3db14610a05578063f2fde38b14610a2557600080fd5b8063ce7c2ac21461091b578063d79779b214610951578063da3ef23f1461098757600080fd5b8063c6682862116100d1578063c668286214610899578063c87b56dd146108ae578063cbccefb2146108ce578063cbfc4bce146108fb57600080fd5b8063a475b5dd1461084e578063b88d4fde14610863578063ba0c60c91461088357600080fd5b80638da5cb5b1161016457806395d89b411161013e57806395d89b41146107c35780639852595c146107d8578063a0bcfc7f1461080e578063a22cb4651461082e57600080fd5b80638da5cb5b1461077c5780639147dd1b1461079a578063920768e9146107b057600080fd5b806370a08231146106e9578063715018a614610709578063722503801461071e57806381a7927e146107335780638b83209b146107495780638ca887ca1461076957600080fd5b806332cb6b0c1161028557806351830227116102235780635accac99116101fd5780635accac99146106755780635c975abb146106955780636352211e146106b45780636c0360eb146106d457600080fd5b80635183022714610627578063549df2df14610641578063584d05e41461066157600080fd5b8063406072a91161025f578063406072a91461058157806342842e0e146105c757806348b75044146105e75780634f6ccce71461060757600080fd5b806332cb6b0c146105375780633a98ef391461054c5780633f5fbad01461056157600080fd5b806318160ddd116102f25780631f2898c3116102cc5780631f2898c3146104cc57806323b872dd146104e15780632eb4a7ab146105015780632f745c591461051757600080fd5b806318160ddd1461046d578063191655871461048c5780631dcfab39146104ac57600080fd5b806301ffc9a71461038757806306fdde03146103bc578063081812fc146103de578063095ea7b31461041657806315c316fc1461043857806316c38b3c1461044d57600080fd5b36610382577f6ef95f06320e7a25a04a175ca677b7052bdd97131872c2192525a629f51be77033604080516001600160a01b0390921682523460208301520160405180910390a1005b600080fd5b34801561039357600080fd5b506103a76103a2366004613135565b610a45565b60405190151581526020015b60405180910390f35b3480156103c857600080fd5b506103d1610a70565b6040516103b39190613342565b3480156103ea57600080fd5b506103fe6103f936600461311c565b610b02565b6040516001600160a01b0390911681526020016103b3565b34801561042257600080fd5b506104366104313660046130b6565b610b9c565b005b34801561044457600080fd5b50610436610cb2565b34801561045957600080fd5b506104366104683660046130e2565b610cf7565b34801561047957600080fd5b506008545b6040519081526020016103b3565b34801561049857600080fd5b506104366104a7366004612ee9565b610d3b565b3480156104b857600080fd5b506104366104c736600461311c565b610e69565b3480156104d857600080fd5b50610436610e98565b3480156104ed57600080fd5b506104366104fc366004612f3f565b610f50565b34801561050d57600080fd5b5061047e60135481565b34801561052357600080fd5b5061047e6105323660046130b6565b610f81565b34801561054357600080fd5b5061047e606481565b34801561055857600080fd5b50600a5461047e565b34801561056d57600080fd5b5061043661057c36600461311c565b611017565b34801561058d57600080fd5b5061047e61059c366004612f06565b6001600160a01b03918216600090815260106020908152604080832093909416825291909152205490565b3480156105d357600080fd5b506104366105e2366004612f3f565b611046565b3480156105f357600080fd5b50610436610602366004612f06565b611061565b34801561061357600080fd5b5061047e61062236600461311c565b611249565b34801561063357600080fd5b50601b546103a79060ff1681565b34801561064d57600080fd5b5061043661065c36600461311c565b6112dc565b34801561066d57600080fd5b50606461047e565b34801561068157600080fd5b5061043661069036600461316f565b61130b565b3480156106a157600080fd5b50601b546103a790610100900460ff1681565b3480156106c057600080fd5b506103fe6106cf36600461311c565b61134c565b3480156106e057600080fd5b506103d16113c3565b3480156106f557600080fd5b5061047e610704366004612ee9565b611451565b34801561071557600080fd5b506104366114d8565b34801561072a57600080fd5b506103d161150e565b34801561073f57600080fd5b5061047e60175481565b34801561075557600080fd5b506103fe61076436600461311c565b61151b565b61043661077736600461311c565b61154b565b34801561078857600080fd5b506011546001600160a01b03166103fe565b3480156107a657600080fd5b5061047e60165481565b6104366107be366004613000565b611831565b3480156107cf57600080fd5b506103d1611a45565b3480156107e457600080fd5b5061047e6107f3366004612ee9565b6001600160a01b03166000908152600d602052604090205490565b34801561081a57600080fd5b5061043661082936600461316f565b611a54565b34801561083a57600080fd5b50610436610849366004613088565b611a91565b34801561085a57600080fd5b50610436611a9c565b34801561086f57600080fd5b5061043661087e366004612f80565b611ad5565b34801561088f57600080fd5b5061047e60155481565b3480156108a557600080fd5b506103d1611b0d565b3480156108ba57600080fd5b506103d16108c936600461311c565b611b1a565b3480156108da57600080fd5b50601b546108ee9062010000900460ff1681565b6040516103b3919061331a565b34801561090757600080fd5b50610436610916366004612ee9565b611c7c565b34801561092757600080fd5b5061047e610936366004612ee9565b6001600160a01b03166000908152600c602052604090205490565b34801561095d57600080fd5b5061047e61096c366004612ee9565b6001600160a01b03166000908152600f602052604090205490565b34801561099357600080fd5b506104366109a236600461316f565b611d08565b3480156109b357600080fd5b50600b5461047e565b3480156109c857600080fd5b506103a76109d7366004612f06565b6001600160a01b03918216600090815260056020908152604080832093909416825291909152205460ff1690565b348015610a1157600080fd5b50610436610a2036600461311c565b611d45565b348015610a3157600080fd5b50610436610a40366004612ee9565b611d74565b60006001600160e01b0319821663780e9d6360e01b1480610a6a5750610a6a82611e18565b92915050565b606060008054610a7f9061354c565b80601f0160208091040260200160405190810160405280929190818152602001828054610aab9061354c565b8015610af85780601f10610acd57610100808354040283529160200191610af8565b820191906000526020600020905b815481529060010190602001808311610adb57829003601f168201915b5050505050905090565b6000818152600260205260408120546001600160a01b0316610b805760405162461bcd60e51b815260206004820152602c60248201527f4552433732313a20617070726f76656420717565727920666f72206e6f6e657860448201526b34b9ba32b73a103a37b5b2b760a11b60648201526084015b60405180910390fd5b506000908152600460205260409020546001600160a01b031690565b6000610ba78261134c565b9050806001600160a01b0316836001600160a01b03161415610c155760405162461bcd60e51b815260206004820152602160248201527f4552433732313a20617070726f76616c20746f2063757272656e74206f776e656044820152603960f91b6064820152608401610b77565b336001600160a01b0382161480610c315750610c3181336109d7565b610ca35760405162461bcd60e51b815260206004820152603860248201527f4552433732313a20617070726f76652063616c6c6572206973206e6f74206f7760448201527f6e6572206e6f7220617070726f76656420666f7220616c6c00000000000000006064820152608401610b77565b610cad8383611e68565b505050565b6011546001600160a01b03163314610cdc5760405162461bcd60e51b8152600401610b7790613438565b601b80546001919062ff0000191662010000835b0217905550565b6011546001600160a01b03163314610d215760405162461bcd60e51b8152600401610b7790613438565b601b80549115156101000261ff0019909216919091179055565b6001600160a01b0381166000908152600c6020526040902054610d705760405162461bcd60e51b8152600401610b77906133a7565b6000610d7b600b5490565b610d8590476134be565b90506000610db28383610dad866001600160a01b03166000908152600d602052604090205490565b611ed6565b905080610dd15760405162461bcd60e51b8152600401610b77906133ed565b6001600160a01b0383166000908152600d602052604081208054839290610df99084906134be565b9250508190555080600b6000828254610e1291906134be565b90915550610e2290508382611f1c565b604080516001600160a01b0385168152602081018390527fdf20fd1e76bc69d672e4814fafb2c449bba3a5369d8359adf9e05e6fde87b056910160405180910390a1505050565b6011546001600160a01b03163314610e935760405162461bcd60e51b8152600401610b7790613438565b601755565b6011546001600160a01b03163314610ec25760405162461bcd60e51b8152600401610b7790613438565b6001601b5462010000900460ff166004811115610ee157610ee16135e2565b14610f385760405162461bcd60e51b815260206004820152602160248201527f4669727374207468652070726573616c652c207468656e207468652073616c656044820152601760f91b6064820152608401610b77565b601b80546002919062ff000019166201000083610cf0565b610f5a3382612035565b610f765760405162461bcd60e51b8152600401610b779061346d565b610cad83838361212b565b6000610f8c83611451565b8210610fee5760405162461bcd60e51b815260206004820152602b60248201527f455243373231456e756d657261626c653a206f776e657220696e646578206f7560448201526a74206f6620626f756e647360a81b6064820152608401610b77565b506001600160a01b03919091166000908152600660209081526040808320938352929052205490565b6011546001600160a01b031633146110415760405162461bcd60e51b8152600401610b7790613438565b601655565b610cad83838360405180602001604052806000815250611ad5565b6001600160a01b0381166000908152600c60205260409020546110965760405162461bcd60e51b8152600401610b77906133a7565b6001600160a01b0382166000908152600f60205260408120546040516370a0823160e01b81523060048201526001600160a01b038516906370a082319060240160206040518083038186803b1580156110ee57600080fd5b505afa158015611102573d6000803e3d6000fd5b505050506040513d601f19601f8201168201806040525081019061112691906131b8565b61113091906134be565b905060006111698383610dad87876001600160a01b03918216600090815260106020908152604080832093909416825291909152205490565b9050806111885760405162461bcd60e51b8152600401610b77906133ed565b6001600160a01b038085166000908152601060209081526040808320938716835292905290812080548392906111bf9084906134be565b90915550506001600160a01b0384166000908152600f6020526040812080548392906111ec9084906134be565b909155506111fd90508484836122d2565b604080516001600160a01b038581168252602082018490528616917f3be5b7a71e84ed12875d241991c70855ac5817d847039e17a9d895c1ceb0f18a910160405180910390a250505050565b600061125460085490565b82106112b75760405162461bcd60e51b815260206004820152602c60248201527f455243373231456e756d657261626c653a20676c6f62616c20696e646578206f60448201526b7574206f6620626f756e647360a01b6064820152608401610b77565b600882815481106112ca576112ca61360e565b90600052602060002001549050919050565b6011546001600160a01b031633146113065760405162461bcd60e51b8152600401610b7790613438565b601555565b6011546001600160a01b031633146113355760405162461bcd60e51b8152600401610b7790613438565b8051611348906019906020840190612dda565b5050565b6000818152600260205260408120546001600160a01b031680610a6a5760405162461bcd60e51b815260206004820152602960248201527f4552433732313a206f776e657220717565727920666f72206e6f6e657869737460448201526832b73a103a37b5b2b760b91b6064820152608401610b77565b601880546113d09061354c565b80601f01602080910402602001604051908101604052809291908181526020018280546113fc9061354c565b80156114495780601f1061141e57610100808354040283529160200191611449565b820191906000526020600020905b81548152906001019060200180831161142c57829003601f168201915b505050505081565b60006001600160a01b0382166114bc5760405162461bcd60e51b815260206004820152602a60248201527f4552433732313a2062616c616e636520717565727920666f7220746865207a65604482015269726f206164647265737360b01b6064820152608401610b77565b506001600160a01b031660009081526003602052604090205490565b6011546001600160a01b031633146115025760405162461bcd60e51b8152600401610b7790613438565b61150c6000612324565b565b601980546113d09061354c565b6000600e82815481106115305761153061360e565b6000918252602090912001546001600160a01b031692915050565b6002601254141561159e5760405162461bcd60e51b815260206004820152601f60248201527f5265656e7472616e637947756172643a207265656e7472616e742063616c6c006044820152606401610b77565b600260125560006115ae60085490565b6017549091506003601b5462010000900460ff1660048111156115d3576115d36135e2565b14156116185760405162461bcd60e51b815260206004820152601460248201527329b7b9393c961037379027232a39903632b33a1760611b6044820152606401610b77565b6002601b5462010000900460ff166004811115611637576116376135e2565b146116845760405162461bcd60e51b815260206004820181905260248201527f536f7272792c2073616c6520686173206e6f742073746172746564207965742e6044820152606401610b77565b61168e83826134ea565b3410156116d25760405162461bcd60e51b81526020600482015260126024820152712737ba1032b737bab3b43a10333ab732399760711b6044820152606401610b77565b60155483111561172e5760405162461bcd60e51b815260206004820152602160248201527f596f752063616e2774206d696e74206d6f7265207468616e203320746f6b656e6044820152607360f81b6064820152608401610b77565b606461173a84846134be565b11156117ae5760405162461bcd60e51b815260206004820152603860248201527f53616c6520697320616c6d6f737420646f6e6520616e6420776520646f6e277460448201527f206861766520656e6f75676874204e465473206c6566742e00000000000000006064820152608401610b77565b336000908152601c6020526040812080548592906117cd9084906134be565b90915550606490506117df84846134be565b14156117f757601b805462ff00001916620300001790555b60015b838111611826576118143361180f83866134be565b612376565b8061181e81613587565b9150506117fa565b505060016012555050565b600260125414156118845760405162461bcd60e51b815260206004820152601f60248201527f5265656e7472616e637947756172643a207265656e7472616e742063616c6c006044820152606401610b77565b60026012556001601b5462010000900460ff1660048111156118a8576118a86135e2565b146118f55760405162461bcd60e51b815260206004820152601c60248201527f50726573616c6520686173206e6f742073746172746564207965742e000000006044820152606401610b77565b6001600160a01b0383166000908152601c602052604090205460011161196b5760405162461bcd60e51b815260206004820152602560248201527f596f752063616e206f6e6c79206765742031204e4654206f6e207468652050726044820152646573616c6560d81b6064820152608401610b77565b611976838383612390565b6119b95760405162461bcd60e51b8152602060048201526014602482015273139bdd081bdb881d1a19481dda1a5d195b1a5cdd60621b6044820152606401610b77565b60165434811115611a015760405162461bcd60e51b81526020600482015260126024820152712737ba1032b737bab3b43a10333ab732399760711b6044820152606401610b77565b6001600160a01b0384166000908152601c60205260408120805491611a2583613587565b9190505550611a378461180f60145490565b611826601480546001019055565b606060018054610a7f9061354c565b6011546001600160a01b03163314611a7e5760405162461bcd60e51b8152600401610b7790613438565b8051611348906018906020840190612dda565b611348338383612411565b6011546001600160a01b03163314611ac65760405162461bcd60e51b8152600401610b7790613438565b601b805460ff19166001179055565b611adf3383612035565b611afb5760405162461bcd60e51b8152600401610b779061346d565b611b07848484846124e0565b50505050565b601a80546113d09061354c565b6000818152600260205260409020546060906001600160a01b0316611b815760405162461bcd60e51b815260206004820152601760248201527f54686973204e465420646f65736e27742065786973742e0000000000000000006044820152606401610b77565b601b5460ff16611c1d5760198054611b989061354c565b80601f0160208091040260200160405190810160405280929190818152602001828054611bc49061354c565b8015611c115780601f10611be657610100808354040283529160200191611c11565b820191906000526020600020905b815481529060010190602001808311611bf457829003601f168201915b50505050509050919050565b6000611c27612513565b90506000815111611c475760405180602001604052806000815250611c75565b80611c5184612522565b601a604051602001611c6593929190613219565b6040516020818303038152906040525b9392505050565b6011546001600160a01b03163314611ca65760405162461bcd60e51b8152600401610b7790613438565b6000611cb160085490565b90506064611cc08260016134be565b1115611cf95760405162461bcd60e51b815260206004820152600860248201526714dbdb19081bdd5d60c21b6044820152606401610b77565b6113488261180f8360016134be565b6011546001600160a01b03163314611d325760405162461bcd60e51b8152600401610b7790613438565b805161134890601a906020840190612dda565b6011546001600160a01b03163314611d6f5760405162461bcd60e51b8152600401610b7790613438565b601355565b6011546001600160a01b03163314611d9e5760405162461bcd60e51b8152600401610b7790613438565b6001600160a01b038116611e035760405162461bcd60e51b815260206004820152602660248201527f4f776e61626c653a206e6577206f776e657220697320746865207a65726f206160448201526564647265737360d01b6064820152608401610b77565b611e0c81612324565b50565b80546001019055565b60006001600160e01b031982166380ac58cd60e01b1480611e4957506001600160e01b03198216635b5e139f60e01b145b80610a6a57506301ffc9a760e01b6001600160e01b0319831614610a6a565b600081815260046020526040902080546001600160a01b0319166001600160a01b0384169081179091558190611e9d8261134c565b6001600160a01b03167f8c5be1e5ebec7d5bd14f71427d1e84f3dd0314c0f7b2291e5b200ac8c7c3b92560405160405180910390a45050565b600a546001600160a01b0384166000908152600c602052604081205490918391611f0090866134ea565b611f0a91906134d6565b611f149190613509565b949350505050565b80471015611f6c5760405162461bcd60e51b815260206004820152601d60248201527f416464726573733a20696e73756666696369656e742062616c616e63650000006044820152606401610b77565b6000826001600160a01b03168260405160006040518083038185875af1925050503d8060008114611fb9576040519150601f19603f3d011682016040523d82523d6000602084013e611fbe565b606091505b5050905080610cad5760405162461bcd60e51b815260206004820152603a60248201527f416464726573733a20756e61626c6520746f2073656e642076616c75652c207260448201527f6563697069656e74206d617920686176652072657665727465640000000000006064820152608401610b77565b6000818152600260205260408120546001600160a01b03166120ae5760405162461bcd60e51b815260206004820152602c60248201527f4552433732313a206f70657261746f7220717565727920666f72206e6f6e657860448201526b34b9ba32b73a103a37b5b2b760a11b6064820152608401610b77565b60006120b98361134c565b9050806001600160a01b0316846001600160a01b031614806120f45750836001600160a01b03166120e984610b02565b6001600160a01b0316145b80611f1457506001600160a01b0380821660009081526005602090815260408083209388168352929052205460ff16949350505050565b826001600160a01b031661213e8261134c565b6001600160a01b0316146121a25760405162461bcd60e51b815260206004820152602560248201527f4552433732313a207472616e736665722066726f6d20696e636f72726563742060448201526437bbb732b960d91b6064820152608401610b77565b6001600160a01b0382166122045760405162461bcd60e51b8152602060048201526024808201527f4552433732313a207472616e7366657220746f20746865207a65726f206164646044820152637265737360e01b6064820152608401610b77565b61220f838383612620565b61221a600082611e68565b6001600160a01b0383166000908152600360205260408120805460019290612243908490613509565b90915550506001600160a01b03821660009081526003602052604081208054600192906122719084906134be565b909155505060008181526002602052604080822080546001600160a01b0319166001600160a01b0386811691821790925591518493918716917fddf252ad1be2c89b69c2b068fc378daa952ba7f163c4a11628f55a4df523b3ef91a4505050565b604080516001600160a01b038416602482015260448082018490528251808303909101815260649091019091526020810180516001600160e01b031663a9059cbb60e01b179052610cad9084906126d8565b601180546001600160a01b038381166001600160a01b0319831681179093556040519116919082907f8be0079c531659141344cd1fd0a4f28419497f9722a3daafe3b4186f6b6457e090600090a35050565b6113488282604051806020016040528060008152506127aa565b6000611f146123d8856040516bffffffffffffffffffffffff19606083901b166020820152600090603401604051602081830303815290604052805190602001209050919050565b8484808060200260200160405190810160405280939291908181526020018383602002808284376000920191909152506127dd92505050565b816001600160a01b0316836001600160a01b031614156124735760405162461bcd60e51b815260206004820152601960248201527f4552433732313a20617070726f766520746f2063616c6c6572000000000000006044820152606401610b77565b6001600160a01b03838116600081815260056020908152604080832094871680845294825291829020805460ff191686151590811790915591519182527f17307eab39ab6107e8899845ad3d59bd9653f200f220920489ca2b5937696c31910160405180910390a3505050565b6124eb84848461212b565b6124f7848484846127ec565b611b075760405162461bcd60e51b8152600401610b7790613355565b606060188054610a7f9061354c565b6060816125465750506040805180820190915260018152600360fc1b602082015290565b8160005b8115612570578061255a81613587565b91506125699050600a836134d6565b915061254a565b60008167ffffffffffffffff81111561258b5761258b613624565b6040519080825280601f01601f1916602001820160405280156125b5576020820181803683370190505b5090505b8415611f14576125ca600183613509565b91506125d7600a866135a2565b6125e29060306134be565b60f81b8183815181106125f7576125f761360e565b60200101906001600160f81b031916908160001a905350612619600a866134d6565b94506125b9565b6001600160a01b03831661267b5761267681600880546000838152600960205260408120829055600182018355919091527ff3f7a9fe364faab93b216da50a3214154f22a0a2b415b23a84c8169e8b636ee30155565b61269e565b816001600160a01b0316836001600160a01b03161461269e5761269e83826128f9565b6001600160a01b0382166126b557610cad81612996565b826001600160a01b0316826001600160a01b031614610cad57610cad8282612a45565b600061272d826040518060400160405280602081526020017f5361666545524332303a206c6f772d6c6576656c2063616c6c206661696c6564815250856001600160a01b0316612a899092919063ffffffff16565b805190915015610cad578080602001905181019061274b91906130ff565b610cad5760405162461bcd60e51b815260206004820152602a60248201527f5361666545524332303a204552433230206f7065726174696f6e20646964206e6044820152691bdd081cdd58d8d9595960b21b6064820152608401610b77565b6127b48383612a98565b6127c160008484846127ec565b610cad5760405162461bcd60e51b8152600401610b7790613355565b6000611c758260135485612be6565b60006001600160a01b0384163b156128ee57604051630a85bd0160e11b81526001600160a01b0385169063150b7a02906128309033908990889088906004016132dd565b602060405180830381600087803b15801561284a57600080fd5b505af192505050801561287a575060408051601f3d908101601f1916820190925261287791810190613152565b60015b6128d4573d8080156128a8576040519150601f19603f3d011682016040523d82523d6000602084013e6128ad565b606091505b5080516128cc5760405162461bcd60e51b8152600401610b7790613355565b805181602001fd5b6001600160e01b031916630a85bd0160e11b149050611f14565b506001949350505050565b6000600161290684611451565b6129109190613509565b600083815260076020526040902054909150808214612963576001600160a01b03841660009081526006602090815260408083208584528252808320548484528184208190558352600790915290208190555b5060009182526007602090815260408084208490556001600160a01b039094168352600681528383209183525290812055565b6008546000906129a890600190613509565b600083815260096020526040812054600880549394509092849081106129d0576129d061360e565b9060005260206000200154905080600883815481106129f1576129f161360e565b6000918252602080832090910192909255828152600990915260408082208490558582528120556008805480612a2957612a296135f8565b6001900381819060005260206000200160009055905550505050565b6000612a5083611451565b6001600160a01b039093166000908152600660209081526040808320868452825280832085905593825260079052919091209190915550565b6060611f148484600085612bfc565b6001600160a01b038216612aee5760405162461bcd60e51b815260206004820181905260248201527f4552433732313a206d696e7420746f20746865207a65726f20616464726573736044820152606401610b77565b6000818152600260205260409020546001600160a01b031615612b535760405162461bcd60e51b815260206004820152601c60248201527f4552433732313a20746f6b656e20616c7265616479206d696e746564000000006044820152606401610b77565b612b5f60008383612620565b6001600160a01b0382166000908152600360205260408120805460019290612b889084906134be565b909155505060008181526002602052604080822080546001600160a01b0319166001600160a01b03861690811790915590518392907fddf252ad1be2c89b69c2b068fc378daa952ba7f163c4a11628f55a4df523b3ef908290a45050565b600082612bf38584612d2d565b14949350505050565b606082471015612c5d5760405162461bcd60e51b815260206004820152602660248201527f416464726573733a20696e73756666696369656e742062616c616e636520666f6044820152651c8818d85b1b60d21b6064820152608401610b77565b6001600160a01b0385163b612cb45760405162461bcd60e51b815260206004820152601d60248201527f416464726573733a2063616c6c20746f206e6f6e2d636f6e74726163740000006044820152606401610b77565b600080866001600160a01b03168587604051612cd091906131fd565b60006040518083038185875af1925050503d8060008114612d0d576040519150601f19603f3d011682016040523d82523d6000602084013e612d12565b606091505b5091509150612d22828286612da1565b979650505050505050565b600081815b8451811015612d99576000858281518110612d4f57612d4f61360e565b60200260200101519050808311612d755760008381526020829052604090209250612d86565b600081815260208490526040902092505b5080612d9181613587565b915050612d32565b509392505050565b60608315612db0575081611c75565b825115612dc05782518084602001fd5b8160405162461bcd60e51b8152600401610b779190613342565b828054612de69061354c565b90600052602060002090601f016020900481019282612e085760008555612e4e565b82601f10612e2157805160ff1916838001178555612e4e565b82800160010185558215612e4e579182015b82811115612e4e578251825591602001919060010190612e33565b50612e5a929150612e5e565b5090565b5b80821115612e5a5760008155600101612e5f565b600067ffffffffffffffff80841115612e8e57612e8e613624565b604051601f8501601f19908116603f01168101908282118183101715612eb657612eb6613624565b81604052809350858152868686011115612ecf57600080fd5b858560208301376000602087830101525050509392505050565b600060208284031215612efb57600080fd5b8135611c758161363a565b60008060408385031215612f1957600080fd5b8235612f248161363a565b91506020830135612f348161363a565b809150509250929050565b600080600060608486031215612f5457600080fd5b8335612f5f8161363a565b92506020840135612f6f8161363a565b929592945050506040919091013590565b60008060008060808587031215612f9657600080fd5b8435612fa18161363a565b93506020850135612fb18161363a565b925060408501359150606085013567ffffffffffffffff811115612fd457600080fd5b8501601f81018713612fe557600080fd5b612ff487823560208401612e73565b91505092959194509250565b60008060006040848603121561301557600080fd5b83356130208161363a565b9250602084013567ffffffffffffffff8082111561303d57600080fd5b818601915086601f83011261305157600080fd5b81358181111561306057600080fd5b8760208260051b850101111561307557600080fd5b6020830194508093505050509250925092565b6000806040838503121561309b57600080fd5b82356130a68161363a565b91506020830135612f348161364f565b600080604083850312156130c957600080fd5b82356130d48161363a565b946020939093013593505050565b6000602082840312156130f457600080fd5b8135611c758161364f565b60006020828403121561311157600080fd5b8151611c758161364f565b60006020828403121561312e57600080fd5b5035919050565b60006020828403121561314757600080fd5b8135611c758161365d565b60006020828403121561316457600080fd5b8151611c758161365d565b60006020828403121561318157600080fd5b813567ffffffffffffffff81111561319857600080fd5b8201601f810184136131a957600080fd5b611f1484823560208401612e73565b6000602082840312156131ca57600080fd5b5051919050565b600081518084526131e9816020860160208601613520565b601f01601f19169290920160200192915050565b6000825161320f818460208701613520565b9190910192915050565b60008451602061322c8285838a01613520565b85519184019161323f8184848a01613520565b8554920191600090600181811c908083168061325c57607f831692505b85831081141561327a57634e487b7160e01b85526022600452602485fd5b80801561328e576001811461329f576132cc565b60ff198516885283880195506132cc565b60008b81526020902060005b858110156132c45781548a8201529084019088016132ab565b505083880195505b50939b9a5050505050505050505050565b6001600160a01b0385811682528416602082015260408101839052608060608201819052600090613310908301846131d1565b9695505050505050565b602081016005831061333c57634e487b7160e01b600052602160045260246000fd5b91905290565b602081526000611c7560208301846131d1565b60208082526032908201527f4552433732313a207472616e7366657220746f206e6f6e20455243373231526560408201527131b2b4bb32b91034b6b83632b6b2b73a32b960711b606082015260800190565b60208082526026908201527f5061796d656e7453706c69747465723a206163636f756e7420686173206e6f2060408201526573686172657360d01b606082015260800190565b6020808252602b908201527f5061796d656e7453706c69747465723a206163636f756e74206973206e6f742060408201526a191d59481c185e5b595b9d60aa1b606082015260800190565b6020808252818101527f4f776e61626c653a2063616c6c6572206973206e6f7420746865206f776e6572604082015260600190565b60208082526031908201527f4552433732313a207472616e736665722063616c6c6572206973206e6f74206f6040820152701ddb995c881b9bdc88185c1c1c9bdd9959607a1b606082015260800190565b600082198211156134d1576134d16135b6565b500190565b6000826134e5576134e56135cc565b500490565b6000816000190483118215151615613504576135046135b6565b500290565b60008282101561351b5761351b6135b6565b500390565b60005b8381101561353b578181015183820152602001613523565b83811115611b075750506000910152565b600181811c9082168061356057607f821691505b6020821081141561358157634e487b7160e01b600052602260045260246000fd5b50919050565b600060001982141561359b5761359b6135b6565b5060010190565b6000826135b1576135b16135cc565b500690565b634e487b7160e01b600052601160045260246000fd5b634e487b7160e01b600052601260045260246000fd5b634e487b7160e01b600052602160045260246000fd5b634e487b7160e01b600052603160045260246000fd5b634e487b7160e01b600052603260045260246000fd5b634e487b7160e01b600052604160045260246000fd5b6001600160a01b0381168114611e0c57600080fd5b8015158114611e0c57600080fd5b6001600160e01b031981168114611e0c57600080fdfea2646970667358221220063e98e1a9b7500379a267196e2099288fd49abd4ed7c975a8cf95b7c7b7d34b64736f6c63430008070033",
  "linkReferences": {},
  "deployedLinkReferences": {}
}